:10000000E01F001003010000A52D0000B92D000025
:1000100000000000000000000000000000000000E0
:100020000000000000000000000000003515000086
:100030000000000000000000E1150000251600008F
:10004000DF000000DF000000DF000000DF00000034
:10005000DF000000DF000000DF000000DF00000024
:10006000DF000000DF000000DF000000DF00000014
:10007000DF000000D9180000DF000000DF000000F2
:10008000DF000000DF000000DF000000DF000000F4
:10009000DF0000006D1600000000000000000000FE
:1000A000DF000000DF000000DF00000000000000B3
:1000B00045260000352600002526000015260000F4
:1000C00090450000B80000108800000040010010BA
:1000D00068110000FEE7FEE7FEE7FEE7FEE7FEE749
:1000E000002310B5934203D21C585C500433F9E747
:1000F00010BD00231A008B4202D21A500433FAE7D3
:10010000704710B50C4C0D4B9C4206D2A26861683A
:100110002068FFF7E5FF0C34F5E7094B9C4205D258
:1001200061682068FFF7E5FF0834F6E700F044F95E
:1001300003F002FBFEE7C046C0000000CC00000058
:10014000D4000000FFFFFFFFFFFFFFFFFFFFFFFFE7
:10015000FFFFFFFFFFFFFFFFFFFFFFFFFFFFFFFFAF
:10016000FFFFFFFFFFFFFFFFFFFFFFFFFFFFFFFF9F
:10017000FFFFFFFFFFFFFFFFFFFFFFFFFFFFFFFF8F
:10018000FFFFFFFFFFFFFFFFFFFFFFFFFFFFFFFF7F
:10019000FFFFFFFFFFFFFFFFFFFFFFFFFFFFFFFF6F
:1001A000FFFFFFFFFFFFFFFFFFFFFFFFFFFFFFFF5F
:1001B000FFFFFFFFFFFFFFFFFFFFFFFFFFFFFFFF4F
:1001C000FFFFFFFFFFFFFFFFFFFFFFFFFFFFFFFF3F
:1001D000FFFFFFFFFFFFFFFFFFFFFFFFFFFFFFFF2F
:1001E000FFFFFFFFFFFFFFFFFFFFFFFFFFFFFFFF1F
:1001F000FFFFFFFFFFFFFFFFFFFFFFFFFFFFFFFF0F
:10020000FFFFFFFFFFFFFFFFFFFFFFFFFFFFFFFFFE
:10021000FFFFFFFFFFFFFFFFFFFFFFFFFFFFFFFFEE
:10022000FFFFFFFFFFFFFFFFFFFFFFFFFFFFFFFFDE
:10023000FFFFFFFFFFFFFFFFFFFFFFFFFFFFFFFFCE
:10024000FFFFFFFFFFFFFFFFFFFFFFFFFFFFFFFFBE
:10025000FFFFFFFFFFFFFFFFFFFFFFFFFFFFFFFFAE
:10026000FFFFFFFFFFFFFFFFFFFFFFFFFFFFFFFF9E
:10027000FFFFFFFFFFFFFFFFFFFFFFFFFFFFFFFF8E
:10028000FFFFFFFFFFFFFFFFFFFFFFFFFFFFFFFF7E
:10029000FFFFFFFFFFFFFFFFFFFFFFFFFFFFFFFF6E
:1002A000FFFFFFFFFFFFFFFFFFFFFFFFFFFFFFFF5E
:1002B000FFFFFFFFFFFFFFFFFFFFFFFFFFFFFFFF4E
:1002C000FFFFFFFFFFFFFFFFFFFFFFFFFFFFFFFF3E
:1002D000FFFFFFFFFFFFFFFFFFFFFFFFFFFFFFFF2E
:1002E000FFFFFFFFFFFFFFFFFFFFFFFFFFFFFFFF1E
:1002F000FFFFFFFFFFFFFFFFFFFFFFFFFFFFFFFF0E
:1003000010B5284C284A636A616ADB051B0F9B0005
:1003100098583E2349001940023103F0D3FA0321D3
:10032000236F22000B40214C022B30D08B420DD08A
:10033000012B07D1136C0B40022B28D0032B28D0A4
:10034000012B01D01A4B25E01A4B23E0116C0B4016
:10035000022B12D0032B1CD0C0214900012B02D04C
:100360009368134801E0936812480B420FD11F2194
:1003700093680B40013343430CE0C02391685B005A
:10038000194204D11F2391680B4001335843206068
:1003900001E000232360916F206803F093FA20604E
:1003A00010BDC04600800440C43F0000B8000010EB
:1003B000001BB700002D31018E212020224B890027
:1003C0005A5830B582435A50002271391A62FF39A7
:1003D000C04601390029FBD101221A645A645964CC
:1003E0005A64586C18491042FBD021228A608E2230
:1003F000802492008858A043885010000121DD68B5
:10040000114A01240D42FAD0A02140255162115811
:10041000A9431150032111670021546751675467A4
:1004200022005C6F084801211442FAD0074A084BA9
:100430008167DA67074B1960074B1960074B196032
:100440000223036030BDC046008004405F0001000D
:100450000480044094800440988004409C800440C0
:1004600070B5040000F0C4F92548016800290ED1D8
:100470000722BB25234B2D0108339343224A1360E7
:100480005160224A24C30123556011600360002C8F
:1004900005D0072308341C4201D09C4308341C4A71
:1004A000631E0025934227D8174A11001368586825
:1004B000844204D8154DAB4207D100251CE01D68CD
:1004C000002DF7D01A002B00F1E715681E680835DB
:1004D0001660021B102A0AD9181942605C60446831
:1004E0000A0009684E68B442FAD801601060094AEF
:1004F0005B681168CB1A136000F004FA280070BD25
:10050000000D00104801001040010010040D001003
:10051000AE0B0000BC00001010B5002813D0083846
:10052000040000F065F96368074A1168486883426F
:1005300001D90A00F9E721601460044A1168CB1858
:10054000136000F0DFF910BD40010010BC00001086
:10055000074A13681968074B002902D10122524249
:1005600003E01268D268D26852681A607047C046C9
:10057000100D0010D00D001070B50400154D0E00C8
:100580002868043000F078FD2B00621C07D1002E93
:1005900005D029681048043100F04AFD19E00F4ADF
:1005A00011686418196812684C60944206D20C4AAB
:1005B00010681968043100F047FD0AE0094A106824
:1005C0001968043100F040FD074B1A68944200D2CC
:1005D0001C6070BDB40D0010F40D0010CC0D0010A7
:1005E000300D0010100D0010D00D0010F0B585B0CA
:1005F0000C9F02900E0014000393002F05D1900071
:10060000FFF72EFF071E00D1A5E00D9D002D04D1A0
:100610006020FFF725FF051E0ED0A40022002F63E7
:10062000A521380003F01DFC2B6B043C1C1907238B
:100630009C43009400230AE00C9B002B00D08AE02E
:100640003800FFF769FF86E00133142B06D01A004B
:10065000F15C3432A954F25C002AF5D12B0000275A
:100660000A9C47331F70042C00D904242B1D18004A
:10067000EC622C656F65019300F0D7FC2800183000
:1006800000F0D3FC05231C1B2B005C332D61AC61F7
:100690006D62AF65039A1F700299009800F03AFFEF
:1006A0000B9B2860002B00D01D6000F07BFF2C4BC3
:1006B0002C4C1A6801321A602668002E20D1256061
:1006C0001B68012B26D1284B9819143600F0A2FC88
:1006D000642EF8D1254F380000F09CFC244E3000E9
:1006E00000F098FC234800F095FC234800F092FCB1
:1006F000224800F08FFC224B1F60224B1E6009E055
:10070000214B1B68002B05D123680A9ADB6A9A42A9
:1007100000D325601D4AE86A136801331360AB6497
:100720001B4B1A68904200D91860142358430E4B93
:100730000199181800F07CFC00F040FF124B0126D4
:100740001B68002B09D023680A9ADB6A9A4204D9F5
:1007500000F01CFF01E001267642300005B0F0BD3C
:10076000D80D0010B40D0010380D00101C0D001035
:10077000DC0D0010B80D00109C0D0010F40D0010E1
:10078000100D0010300D0010140D0010D40D0010CD
:10079000080E001010B500240F4B86B0019304948E
:1007A000039402940094230030220C490C48FFF774
:1007B0001DFF01280ED100F007FB01280AD172B6F7
:1007C0000122084B52421A60074B1860074B1C600D
:1007D00000F0B2FE06B010BDF00D001004400000A5
:1007E000210A0000D00D0010140D0010CC0D0010D7
:1007F000024A1368013313607047C046180D001099
:10080000014B18687047C046CC0D0010324BF7B54D
:100810001B68002B31D1314B1A6801321A601F68F6
:10082000002F0BD12E4A2F4B1168186810602E4AEA
:100830001960136801331360FFF78AFE2B4E002501
:1008400033689F420ED3264B1A681268002A02D1E1
:1008500001235B4205E01B68DB68DC6863689F423C
:1008600016D23360224B1B68DA6A14235343214AA1
:10087000D358012B06D9012504E000251E4A136830
:10088000013313601D4B1B68002B22D0012520E093
:10089000231D1800019300F0EFFBA36A002B03D087
:1008A0002000183000F0E8FB154BE06A1A6890420F
:1008B00000D91860142358430E4B211D181800F05E
:1008C000B7FB0B4BE26A1B68DB6A9A42BBD301257C
:1008D000B9E72800FEBDC046180D0010CC0D001071
:1008E000100D0010300D00100C0D0010D00D001078
:1008F000B40D0010380D0010340D00100C0E001057
:10090000080E0010F8B500F04DFE2A4B1A68013AA7
:100910001A601C68002C01D0002446E0264B1B689E
:10092000002BF9D014260127244B1A68002A1ED068
:10093000DB68DC682000251D183000F09DFB2800D6
:1009400000F09AFB1E4BE06A1A68904200D91860CA
:1009500070431C4B2900181800F06AFB1A4BE26A1E
:100960001B68DB6A9A42DFD3184B1F60DCE7002C60
:1009700001D0FFF7EDFD164C2368002B07D1134B78
:100980001B68002BC8D000F001FE01240DE00125FA
:100990002368002BF3D0FFF739FF002801D00B4B61
:1009A0001D602368013B2360F2E700F007FE200092
:1009B000F8BDC046180D0010D80D0010B80D00107D
:1009C000080E0010380D0010B40D00100C0E0010B1
:1009D000340D001070B505000C00FFF709FF0F4B38
:1009E0002A6818681119904203D200238A4206D956
:1009F00002E001238A4202D888429B415B4229607F
:100A0000002B03D0081A0021FFF7B6FDFFF77AFF8D
:100A1000002801D100F0BAFD70BDC046CC0D001019
:100A200070B5154C2368002B1ED0FFF7E1FE134D67
:100A30002E68FFF767FF002EF3D000F0B3FDEB68E0
:100A4000DD68281D00F018FB0D4A1368013B136098
:100A50002368013B236000F0B1FD286BFFF75CFDCC
:100A60002800FFF759FDDCE7064B1B68012BD8D99E
:100A700000F08CFDD5E7C046B00D00109C0D0010B5
:100A8000D80D0010380D00101B4B70B51A681B4BA9
:100A9000002A02D001221A602DE0194C1A60226847
:100AA000236812681B6B9A4204D82068216834318D
:100AB00002F02EFB1425134A1348136801006B4300
:100AC0001B58002B03D11368013B1360F5E7142377
:100AD00010684343CA18556808336D68CB185560D1
:100AE0009D4201D16B685360142213004343CB181D
:100AF0005B68DB68236070BD180D00100C0E0010E1
:100B0000B40D0010080E0010380D001010B50C00C8
:100B1000044B1968183100F097FA01212000FFF703
:100B20002BFD10BDB40D0010084B70B50C001968FA
:100B30001500183100F07CFA002D01D00124644228
:100B400029002000FFF718FD70BDC046B40D00104D
:100B5000C36870B5DC6825001835280000F08CFAF1
:100B6000114B1B68002B0FD1251D280000F084FAC3
:100B70000E4BE06A1A68904200D91860142358435B
:100B80000B4B2900181801E029000A4800F050FA20
:100B9000094BE26A1B680020DB6A9A4202D9074BC4
:100BA0000130186070BDC046180D0010080E00100E
:100BB000380D0010B80D0010B40D00100C0E001010
:100BC000034B1B680360034B1B6843607047C046C0
:100BD0000C0D0010CC0D001070B50D00040000F0DD
:100BE000E1FC0F4B002619682B685A1C13D00D4AE4
:100BF000266810686268864202D0012691420AD2B5
:100C0000881A0126834206D9521AD3182B60200075
:100C1000FFF7D6FF002600F0D1FC300070BDC046C3
:100C2000CC0D00100C0D00100122014B1A60704712
:100C30000C0E0010054B01201B68002B04D0044B48
:100C400018684342584140007047C046140D0010D8
:100C5000180D0010F8B5041E2BD0164DC16A2B6874
:100C6000DB6A994225D28369002B04DB05222B68BD
:100C7000DB6AD21A826114234B430F486269C3189E
:100C800007009A4212D1261D300000F0F5F92B68BA
:100C9000D86A0A4BE0621A68904200D9186014239F
:100CA00058433100381800F0C3F902E02B68DB6AC2
:100CB000E362F8BDB40D0010380D0010080E0010EE
:100CC00070B5041E01D100201EE0436DC26A016DA3
:100CD000013B43658A42F6D0002BF4D1051D280064
:100CE00000F0CAF90523206D1B1AA361074BE062CF
:100CF0001A68904200D9186014235843044B290005
:100D0000181800F095F9012070BDC046080E0010BB
:100D1000380D0010044B1A68002A03D019684A6D78
:100D200001324A6518687047B40D0010F7B500F03D
:100D300039FC104D2C68002C18D10F4F380000F0F2
:100D400069F90E4E300000F065F90D4B22001F606E
:100D50000C4B0C211E6002200094230000F04BFA83
:100D60002860002802D0084900F08EFB00F026FC25
:100D7000F7BDC046400E0010140E0010280E0010E3
:100D8000100E0010440E00100940000010B5416024
:100D90000061914207D8D21A836901249A420DD288
:100DA000011D074B06E09A4202D20124994205D266
:100DB000044B011D186800F047F90024200010BD05
:100DC000440E0010100E00107FB5FFF7AFFF094B67
:100DD0001A68002310009A420AD00222049300925B
:100DE0000393029301934E3203490448FFF7FEFB3D
:100DF00007B000BD400E00100E400000A90E00001C
:100E0000F0B5104D06002C68170085B01A00201EA2
:100E100015D001910297039605290BDCFFF70AFF15
:100E200000230A9A022800D01A0001A9286800F0BD
:100E300000FA04E0002301A9200000F068FA05B0E0
:100E4000F0BDC046400E0010F7B5154D2B681A686E
:100E5000002A1FD0DB68DC681E68271D380000F000
:100E60000BF9636A20009847E369012BEDD1A36970
:100E7000F3189E4206D2636024613900286800F0AE
:100E8000E3F8E2E70021320000910B002000FFF7B9
:100E9000B7FFDAE7034A116813602960F7BDC0465F
:100EA000100E0010440E0010F0B589B00026554B0E
:100EB0001B681A680392B24201D0DB681E68FFF714
:100EC00097FCFFF79DFC504D02902A682F000024EC
:100ED000904202D2FFF7B8FF0134029B2B60002C36
:100EE00039D1039B002B23D0029B2000B34224D393
:100EF000FFF708FD434B1B68DB68DD68281D00F029
:100F0000BBF8EB69012B0FD1AB69029AF1182800ED
:100F10003300FFF73BFF002806D000942300320087
:100F200021002800FFF76CFF6B6A2800984718E043
:100F3000364B1B681A6850425041029B0200F11A5E
:100F4000334B186800F0B2FAFFF7DCFC002808D138
:100F500000F01CFB05E0FFF7D5FC02E0059B002B31
:100F600009DA00232A481A0005A9006800F0FDF9F3
:100F70000028F3D19AE7079C6369002B02D0201D5B
:100F800000F07AF8FFF73CFC3B680500984201D27C
:100F9000FFF75AFF059B3D60092BE2D8012284260A
:100FA0009A40B6001300164022D1C722134205D141
:100FB0009B06D6D52000FFF7AFFAD2E7069BA269C1
:100FC000200099182A000293FFF7E0FE0028C8D0FD
:100FD000636A20009847E369012BC2D1A369069A8E
:100FE0000096D218310033002000FFF709FFB8E760
:100FF00006992B00A1612A0049192000FFF7C6FEBF
:10100000AFE7C046100E00103C0E0010440E00105A
:10101000400E00100300012208334360C3600361E7
:1010200000235242826003607047002303617047CF
:1010300043689A684B608A609A6851609960036857
:10104000086101330360704703000A6830B5083354
:10105000541C01D1036905E05C682568AA4201D3EC
:101060002300F9E75A684A6091608B605960036811
:1010700008610133036030BD4168826803698A609A
:10108000826851605968884200D15A60002202612A
:101090001A68501E1860704770B51500026C040085
:1010A000002A07D10568002D2AD14068FFF708FE05
:1010B000656026E0002D0DD1806802F0C9FEA368AE
:1010C000226C9B186268A360934219D3236828009E
:1010D000A36016E0C06802F0BBFE236CE2685B42CE
:1010E0002168D218E2608A4202D26268D318E360B3
:1010F000022D05D1A36B002B02D0A36B013BA36390
:101100000020A36B0133A36370BD03001A6C10B5FC
:101110000800002A0AD0D9685C688918D960A14201
:1011200001D31968D960D96802F092FE10BD10B5DC
:10113000040000F037FAA36C002B0EDD636A002B6D
:101140000BD020002430FFF703FD002801D0FFF76B
:101150006BFDA36C013BA364EDE701235B42A36439
:1011600000F02CFA00F01EFA636C002B0EDD2369F0
:10117000002B0BD020001030FFF7EAFC002801D034
:10118000FFF752FD636C013B6364EDE701235B42B3
:10119000636400F013FA10BD70B504000D0000F098
:1011A00001FA216CE36B22684B43D0185B1AD31809
:1011B000E3600123606000205B42A063A26063647F
:1011C000A36485420BD12369834210D020001030E4
:1011D000FFF7BEFC00280AD000F0D8F907E0200095
:1011E0001030FFF717FF20002430FFF713FF00F047
:1011F000E5F9012070BDF8B506000800704306ABA4
:1012000054300D001F78FFF72BF9041E0FD0002D6E
:1012100001D1206002E0030054330360E6632564DB
:1012200001212000FFF7B8FF230050331F7020007A
:10123000F8BDF0B504001F00002685B000910192B2
:1012400000F0B0F9A36BE26B934201D3022F13D1EC
:101250003A0000992000FFF71FFF636A002B03D0BC
:1012600020002430FFF774FC002801D000F08EF934
:1012700000F0A4F9012048E0019D002D03D100F009
:101280009DF9280041E0002E02D102A8FFF798FC4A
:1012900000F094F9FFF7ACFA00F084F9636C0133C5
:1012A00001D100236364A36C013301D10023A36443
:1012B00000F084F901A902A8FFF78EFC00281ED1D6
:1012C00000F070F9A66BE56B00F078F9AE4210D132
:1012D000200001991030FFF719FC2000FFF727FFCD
:1012E000FFF710FB002801D00126A9E700F04EF916
:1012F000FAE72000FFF71BFFFFF704FBF4E72000ED
:10130000FFF715FFFFF7FEFA002005B0F0BDF7B5B7
:10131000040016001F00019100F05AF9A36BE26B64
:101320000090934202D30025022F19D13A0001996F
:101330002000FFF7B1FEA36C01330DD1636A002BCF
:101340000DD020002430FFF703FC002807D0002E2A
:1013500005D00125356003E0A36C0133A3640125AA
:10136000009800F03AF92800FEBDF0B504000F0027
:10137000002685B00192009300F014F9A36B002BB6
:1013800027D039002000E568FFF7BFFE009B002B47
:1013900014D1A36B013BA3632368002B02D1FFF799
:1013A000B9FC60602369002B0FD020001030FFF7DC
:1013B000CFFB002809D000F0E9F806E0636AE56099
:1013C000002B02D020002430F1E700F0F7F80120D4
:1013D00057E0019D002D02D100F0F0F850E0002E02
:1013E00002D102A8FFF7ECFB00F0E8F8FFF700FAE3
:1013F00000F0D8F8636C013301D100236364A36C5F
:10140000013301D10023A36400F0D8F801A902A898
:10141000FFF7E2FB002827D100F0C4F8A56B00F02D
:10142000CDF8002D1AD12368002B06D100F0BAF8B0
:101430006068FFF70FFC00F0C1F82000019924302C
:10144000FFF764FB2000FFF772FEFFF75BFA00284E
:1014500001D0012690E700F099F8FAE72000FFF7A5
:1014600066FEFFF74FFAF4E72000FFF760FEFFF794
:1014700049FA00F097F8A56B00F0A0F8002DE8D12C
:10148000280005B0F0BDFFFF002370B5064ADD005F
:10149000AC182668002E02D1A950606002E001332A
:1014A0000A2BF4D170BDC0462010001070B50400A6
:1014B0000D00160000F076F8636C013301D10023B3
:1014C0006364A36C013301D10023A36400F076F8B8
:1014D000A36B002B05D12000320029002430FFF738
:1014E00023FB2000FFF723FE70BD72B6FEE7FFFF6F
:1014F000074A13681868203080F30988022080F3B7
:101500001488BFF36F8F3FBCAE4662B600BDC046C5
:10151000B40D001010B58024031F64041C60043B4C
:1015200019600349043B1960143B40381A6010BD30
:10153000EB1400007047FFFFFF210F4B09041A68EE
:1015400010B50A43FF211A601A6809060A43FA21F6
:101550001A600A4B8900186802F0B4F90722084B98
:1015600001381860074B1A600022074B1A60FFF71A
:10157000BFFF72B6FEE7C04620ED00E0B8000010E5
:1015800014E000E010E000E0C00000108022044BF6
:1015900052051A60BFF34F8FBFF36F8F7047C0467D
:1015A00004ED00E072B6044A136801331360BFF320
:1015B0004F8FBFF36F8F7047C0000010034A13684E
:1015C000013B1360002B00D162B67047C0000010D1
:1015D000EFF3108072B67047002080F310887047D8
:1015E000EFF309800E4B1A6820381060F0C04446B3
:1015F0004D4656465F46F0C008B572B6FFF744FA4E
:1016000062B60CBC116808681030F0C8A046A94644
:10161000B246BB4680F309882038F0C81847C04658
:10162000B40D001010B5FFF7D3FF0400FFF7EEF87C
:10163000002803D08022034B52051A602000FFF7D8
:10164000CCFF10BD04ED00E010B5064B002806D01D
:10165000054C20001C6001F035FD200000E0186002
:1016600010BDC046601100101800000E37B50F4CB9
:101670006A4620002368D51D1B68083029002B709E
:1016800001F0C2FA0A4B1860002805D003021B0AB9
:10169000122B01D101F016FD6468002C04D001F07A
:1016A0007BFB2A780021A04737BDC046500E0010B2
:1016B00060110010F8B5284C00230600200063607C
:1016C000264B0822236026490123083001F08EFAB8
:1016D0003000FFF7B9FF051E04D03000FFF7B4FF5C
:1016E000050036E0FEF70CFEE1211E4B49031868A9
:1016F00002F0E8F8312380211B4A490113601B4A9C
:10170000802713601A4AD36F0B43D3678022194B8B
:1017100092031A60012223685A60D9683943D9605C
:10172000B1000959C7B2000A0F60486003210620C2
:10173000D960996801439960196B7A300143196344
:1017400099681143B2409960237F1A430A4B22776C
:101750001D602800F8BDC046500E001000800040FB
:10176000480E0010B8000010A4400440A8400440F7
:101770000480044000E100E06011001070B5050035
:101780000C00FFF761FF002803D02800FFF75CFF83
:1017900015E00B4A137F2B41DB0707D4094C0A4B9A
:1017A00020001C6001F08EFC200008E0136840223D
:1017B00059691142FCD000221C60034B1A6070BDB5
:1017C000500E00101500000E6011001070B50500DD
:1017D0000C00FFF739FF002803D02800FFF734FF83
:1017E0000DE0FFF7DFFE14206843054B08302100B1
:1017F000181801F031FA0400FFF7E0FE200070BD78
:10180000500E0010020001209040034B1B7F184037
:10181000431E9841C0B27047500E00100022024B88
:10182000AC331A807047C046700E00107047FFFF3F
:1018300070B51C4C1C4D23003133187020001B4B1D
:1018400020301B689B68DB689847230030331A7888
:10185000236A22751D4000232561D9B28A4206D928
:10186000E11808002830007801330872F5E701F02C
:101870001BFC0F4BC01885420DD10025237DAB42C8
:101880000FD92900200008316118B030013501F06E
:10189000BBF9EDB2F2E7210020000831983001F0E9
:1018A000B3F970BD700E0010FFFFFFDFF81FFF1FC0
:1018B0000000561510B5064B002801D1186005E050
:1018C000044C20001C6001F0FDFB200010BDC04650
:1018D0006011001001000002034B10B51B689B68EB
:1018E0005B68984710BDC046F81FFF1FC62370B540
:1018F000094C5B00E258002A0AD01D0023009E33E9
:101900001B88002B04D0665901F046FAB047F5E772
:101910000020024B186070BD700E001060110010A6
:10192000F0B58BB003931A4B0291170001211A688E
:1019300000230D009D402C00D8B2019014401AD114
:1019400005AE14222100300002F08BFA039A029BAC
:101950007760134305936B461B79300073740D4B0E
:101960001B689B689B689847094B1A6815431D6064
:10197000094B1C6008E00133202BDAD1074C064BE1
:1019800020001C6001F09EFB20000BB0F0BDC046A3
:10199000700E0010F81FFF1F6011001020000002E1
:1019A000C623F0B500252A4C5B00E5502300012634
:1019B00034331E702300AC331D802100022320002D
:1019C0008BB00422236038311633983001F00EF9C1
:1019D000FEF796FC1F4B20491868009501F072FF36
:1019E0003F23013818408C239B01C0181B4B0190EA
:1019F00002AA83CB83C283CB83C203CB03C2184F1B
:101A000031003B6868469B681B6898473B6802A8A2
:101A10009B68DB699847802221002000114B9201CE
:101A20001A60C4313300C822B03001F0DFF801F091
:101A30003BFB0D4B0122C118802352429B0528001D
:101A4000FFF76EFF2800094B1D600BB0F0BDC046CC
:101A5000700E0010B800001000093D001840000092
:101A6000F81FFF1F00E100E0000056156011001094
:101A700070B504000D00FFF71DFF002803D0200003
:101A8000FFF718FF04E003482900983001F0E4F85C
:101A900070BDC046700E0010074B03205A68120636
:101AA00008D45A680130920604D45B6801305B06A2
:101AB000DB1718407047C04600000540F0B587B0FE
:101AC00007000E00FFF7F6FE002804D03800FFF7ED
:101AD000F1FEC0B238E01D4C230034331B78002BDC
:101AE00004D11B4A1B4B15201A602DE02300AC3398
:101AF00000229B5E002B04DD174B5B68FFF746FD61
:101B0000F4E701AD14220021280002F0AAF932699D
:101B1000B3681343019301236B740023327B2A744F
:101B2000D9B28A4204D9F05CE91808720133F7E7A8
:101B30000A4B28001B68AC349B681B699847082334
:101B400038002380FFF7A8FF07B0F0BD700E00102B
:101B5000150000026011001000000540F81FFF1F73
:101B600010B501000248B03001F076F810BDC04653
:101B7000700E0010054BAC3300215A5E002A01DDC7
:101B8000121A00E000221A807047C046700E001042
:101B900010B5002805D00368197003685A1C02604C
:101BA00002E0080000F08EFD10BDF7B514000090B3
:101BB000019120270A00002C0FDD0199501A11789D
:101BC000002901D00132F8E7844201DD241A00E047
:101BD0000C0020279A0700D510370025DB070CD40E
:101BE0002500002D05DD39000098FFF7D1FF013DEC
:101BF000F7E7E543ED172540641B2E00019B5B1BB7
:101C0000995D002904D00098FFF7C2FF0136F5E77F
:101C10002500002D05DD39000098FFF7B9FF013DD3
:101C2000F7E7E043C01720408019FEBDF0B587B04C
:101C3000060017000C0003A8002909D130234170C9
:101C4000037001000D9B0C9A3000FFF7AEFF42E0DD
:101C500000220092934206D00A2F04D1914202DA68
:101C600001234C42009300230F25C37202ABED18F1
:101C70000E9B3A3B0193002C10D03900200001F05C
:101C8000A7FE092901DD019BC9183031013D2970EA
:101C90002000390001F016FE0400ECE7009B002B49
:101CA00012D00C9B002B0BD00D9B9B0708D52D2130
:101CB0003000FFF76DFF0C9B0134013B0C9303E0F8
:101CC0002D230024013D2B700D9B0C9A2900300020
:101CD000FFF76BFF201807B0F0BDFFFFF0B507005E
:101CE0000E001C00002589B03378002B05D0252B71
:101CF0006CD17178721C002905D1002F6DD00022A3
:101D00003B681A7069E025295FD0002305932D29CF
:101D100002D10133B21C059316003278302A05D166
:101D20000222059B013613430593F6E70022317822
:101D300008003038C3B2092B04D80A214A430136BF
:101D40008218F4E7732906D1206825490434002855
:101D500036D0010034E0642901D069290ED1059BF9
:101D60006120019321000123029000920A22096858
:101D700038000434FFF75AFF2D182CE0782902D1DF
:101D80002100612003E0582908D121004120059B52
:101D900000920193029000231022E8E7752907D1F1
:101DA0006120059B21000193029000920023DDE752
:101DB000632910D1206807A90870002004344870F6
:101DC000059B3800FFF7F1FED6E7160031783800A2
:101DD000FFF7DEFE0135013686E7280009B0F0BDC9
:101DE000384000000FB407B5012204AB02CB5242C9
:101DF00000200193FFF772FF03B008BC04B018473E
:101E000003009830F0B504003F209C331E888446C0
:101E10000023B3420FD20C205843256828180588A8
:101E20008D4206D16746C578BD4305D18578954278
:101E300002D00133EDE70020F0BDF0B589B01E00FF
:101E40000EAB1B7805000F0000920193182210AB17
:101E5000002102A81C7802F004F86A46127902AB4D
:101E60001A706A4612785F709A70B022DE702B7911
:101E7000D2009B180493082302AA13730F9B002B14
:101E80000AD00023DAB2944207D902A95A180F994E
:101E9000C95C01331171F5E70F9C0023042C05D0B8
:101EA00002A9621801341371E4B2F7E7C435287847
:101EB00002A9FFF703FE09B0F0BDF0B589B00091AB
:101EC0001700019305000EAB1822002102A80F9CF9
:101ED0001E7801F0C6FF802302AA1370577013000A
:101EE0006A461279DE709A701C7102AA230A537135
:101EF000230C93710823240E803511000098D471AF
:101F000004951373FFF7DAFD09B0F0BD07B58278C9
:101F100000238A4209D3C2783F331A4051434368B1
:101F200001A8591801F094FF019B18000EBDFFFF96
:101F3000F0B504009830016021009C310A80220035
:101F40007F212500260087B0A03211700E9F0D99C9
:101F5000C435516097602B700C9BC8363360207974
:101F600001F09AF800230122190052422878FFF765
:101F7000D7FC01222179002352422878FFF7D0FCB8
:101F80000122C02100235242C9002878FFF7C8FC73
:101F9000C02301222179DB00C9182878002352428E
:101FA000FFF7BEFC002F05D028780023124A8021BD
:101FB000FFF7B6FC0122211D287800235242C96F89
:101FC000FFF7AEFC3368228A00211A6068461822A7
:101FD00001F047FFE0222379D2009B1802936A4662
:101FE0000123137328786946FFF768FD0020034B2F
:101FF000186007B0F0BDC04600FFFFFF6011001081
:10200000F0B5FA25AD0005820D2505718E25FF3549
:1020100045617A3DFF3D456205000024FF26384FAB
:1020200050350460C460846086612F800700AC7006
:10203000022587B053370593324B3D7001373B8003
:10204000314BBC70FD7004373B80304BBC70FD7071
:1020500004373B800123FB701423BC702C4F836337
:102060008762802307009B016037C6623B80294B53
:10207000BC70FD7004373B80274BBC70FD7004378B
:102080003B80BC70FD7005006C352C80AC70EC7032
:10209000224DFA23C56305009B0070350664C364B6
:1020A0002C80AC70EC7004352C80AC70EC70043576
:1020B0002C80AC70EC701A4F04352C80AC70EC7036
:1020C000051DEF670435EE6780352C80AC70EC7031
:1020D00004352C80AC70EC7004352C80AC70EC7046
:1020E00004352C80AC70EC700E9B02930D9B019319
:1020F0000C9B0093059BFFF71BFF200007B0F0BD72
:1021000010200000112000001220000030200000EC
:102110008D02000001200000022000008D030080DD
:102120000D0200000300F0B593B00891A0331B78B6
:102130000700042B01D10020F9E10300C433099307
:102140001B78002B1AD09D48F1E17F213A79079244
:102150000798A268114088421CD17F211000884353
:10216000802800D13AE1C022D200904216D1227BD1
:10217000072A00D851E11B78042B13D13D000CAC89
:10218000C43528782100FFF773FC3B00A0330028FA
:10219000DBD072E1002900D03FE1DEE7002800D06B
:1021A0003BE1D6E0637838000593A37806931902E3
:1021B000059BE678C91889B23200FFF721FE051E9B
:1021C00026D02378402B38D10122037A134204D140
:1021D0003B00C43319787A4BAEE0C3783F21180036
:1021E00088431ED0002E18D0AB78B34210D3711E96
:1021F00089B22800FFF78AFE0B9004200CA9CB7847
:102200008A78497802900BA801904220009010E053
:102210003B00C43319786B4B8EE002350292019576
:1022200002E002936B680193422300933300069A05
:1022300005993800FFF701FEEFE0042219009143F1
:102240002B2902D0223B012B7ED82B7A9B076FD5FE
:10225000E9783F220B00934317D0002E02D0AB78D1
:102260009E4204DD3B00C4331978574B64E0701E76
:102270000D9C80B20A94984212D80A4050436B6871
:102280000AA9181801F0E4FD0AE0EA789A4207D991
:102290000CAAD21812796968CA540133DBB2F4E788
:1022A000002660200CACE378A2786178009002965A
:1022B00001963800FFF7C1FDA37862781B029B18D6
:1022C000424A934212D1E378012B0FD16B681A78FE
:1022D000732A0BD15A78612A08D19A78762A05D1C7
:1022E000DA78652A02D11E6000F07AFEA37862785F
:1022F0001B029B18364A934200D08EE0E378012BF4
:1023000000D08AE06B681A786C2A00D085E05A7891
:102310006F2A00D081E09A78612A00D07DE0DA78D7
:10232000642A00D079E000221A6000F073FE74E0A5
:102330003B00C4331978274B01930096069B059AFE
:102340000798FFF7BAFD68E03B00C4331978224BC9
:10235000F2E762780799914201D0002A5DD1227894
:10236000802A24D005D8012A1FD0022A55D1042260
:102370001EE0812A1ED0822A4FD139003A00A831AE
:102380000968099B9C321B78128802913900A4319C
:102390000968380001913900C83109680091390095
:1023A00098310968FFF7C4FD37E0052200E07F227D
:1023B0001A7032E0002000F0C7F92EE0010000039F
:1023C00001000106000002060000010610100000D6
:1023D0001110000002000106010004051B78042B07
:1023E00000D1CBE63B00A8331D68002D15D0237B20
:1023F000082B12D13E0077331A403B00AC363270C6
:102400002288AE331A8062885A80A2889A80E28835
:10241000DA8000F0C1FC3100A8473B00A0331B78F4
:10242000052B00D0AAE63B1DDB6F0E9A934200D02D
:10243000A4E63B003C0000259833883406932188AD
:10244000002900D19AE6E378A27838000593FFF7D7
:10245000D7FC002800D191E60CA9059A0B7B5619F0
:10246000B34200DA8AE64919406801F0F1FC069BA4
:102470000434F5B29C42E2D180E63A00C8321168D9
:1024800008980A68904202D8121A0A6021E00122D4
:1024900052420A601B7819320593E0233E79DB0033
:1024A00000212000F61801F0DCFC6B461B7DA660C5
:1024B0002370012323732878FFF7EEFA002803D155
:1024C00028782100FFF7FAFA3B00C8331B683A8AE4
:1024D0001A603B00A0331B78052B00D02BE63B0095
:1024E0003C0062330693123B143407932368002B9D
:1024F00055DB0E936368FF2B51D1E268089B9B1854
:102500002269E36093424AD30023069DE360103DB5
:102510000593AB1E19882E78002901D1002E35D0E5
:1025200032003800FFF76CFC002804D12330204B28
:10253000186013B0F0BDC2783F2113008B4305D063
:10254000013EB1B2FFF7E2FC0B9003E041680BA83B
:1025500001F07EFC059B68781A180023082A01DD2B
:102560006B700FE0059AD9B28A18D2B2884205D9A9
:102570000BA95E5C0CA98E540133F3E7059BC318CD
:10258000DBB20593069B0435AB42C2D16B461B7D83
:102590000CA90B733B00C4331878FFF78FFA069B26
:1025A000143410330693079BA3429FD1C3E5C04662
:1025B00060110010F7B5134B134A0400C2500C22EF
:1025C0004A4301930092551C009B104ADB43A158DB
:1025D0005B19002913D001269E40A25816420CD048
:1025E0000B4B1F68002F08D000F0D6FB2900B8471E
:1025F000019BE3581E43019BE6500135E4E7C046CA
:10260000C046F7BD1C800000FF0F000018800000CE
:1026100000100010A02010B50021C005FFF7CAFF70
:1026200010BDFFFF10B501210148FFF7C3FF10BD2A
:102630000000015010B502210148FFF7BBFF10BD9B
:102640000000025010B503210148FFF7B3FF10BD91
:102650000000035070B586B018220021684601F0D2
:1026600000FC00F021FD144B144AC0186B46D188C1
:102670000290197380239B0504930023106814892A
:102680008B4207D225006E465D43455DF55401330C
:10269000DBB2F5E70020D0800422094B1A70FFF767
:1026A000FBF9002801D0052803D169460020FFF777
:1026B00005FA06B070BDC04600005615C4000010F3
:1026C0000C1000100E4B13B51B780400002B14D017
:1026D0000020FFF797F8002803D0E1B20020FFF7B1
:1026E0004DF86B46D91D0C70064C200000F0DEFA48
:1026F000E388082B01D1FFF7ADFF012016BDC046CE
:102700001C100010C400001070B504004518AC4245
:1027100004D02078FFF7D6FF0134F8E770BDFFFF43
:10272000074B10B5DB88002B09D00023054AD35690
:10273000002B02DD1B1A137001E0FFF78BFF10BDA9
:10274000C40000100C10001010B5002804D000F0D8
:102750009BF800F0D9F810BDBFF34F8F024A034B2E
:10276000DA60BFF34F8FFEE70400FA0500ED00E0EA
:10277000022098211A4B70B55A6F1A4C02435A67BF
:102780005A6F8A435A679A6F02439A679A6F8A43CD
:102790009A67DA6F02438020DA67DA6F80018A4332
:1027A000DA67114B191DCA6F0243CA678E211020C8
:1027B00089005A5882435A50FDF7A2FD0B4B0C4931
:1027C000186801F07FF825680006000C2843206097
:1027D00000202268074B13402360074B186070BD30
:1027E0000040044000C0014000800440B8000010D8
:1027F00040548900FFFFFEFF60110010431E70B5BA
:10280000184205D0144800F05DFC0120404222E04F
:10281000FF21124B80251A681C008A431A601A682F
:102820006D021043186019680D4A0A4080211A6031
:102830001A6849040A431A60236B084A2B4202D1E2
:10284000FEF7A4FEF8E753685B015B0F04339B00BF
:1028500098580004800D70BD0400000100C00140C4
:10286000FFFFFFF8F8B5002407000E002500B44272
:1028700005D03800FFF7C2FF01342D18F7E7280014
:10288000210001F01FF8F8BD10B5FDF739FD8021DA
:10289000114A0902D36F0B43D367012204210F4B66
:1028A0001A600F4B196000210E4B19601A600E4B15
:1028B00004321B681B0953430C4A934200D913008E
:1028C0000B4A53600323136072B6A7339360553BE2
:1028D000936062B610BDC04604800440D0800440BE
:1028E000D8800440D4800440B8000010FFFFFF00EF
:1028F0000040004072B6AA22024B9A60553A9A6094
:1029000062B670470040004072B60322AA21034B12
:102910001A6099601A6062B67047C0460040004075
:10292000044B10B51A68044B04481968FFF75AFAAB
:1029300010BDC046D4000010D00000103F40000081
:1029400070B51048FFF74EFA0F4B1D1D40331C00A9
:10295000A54205D029680D48FFF744FA0C35F7E782
:1029600000240C250A4B1A79944209DA1A682B00C4
:102970006343D31859680548FFF734FA0134F1E787
:1029800070BDC046DB410000C44000005040000064
:102990007010001010B51C00002A02D11000FFF7C3
:1029A000D3FE2068002800D00120FFF7CDFE10BD27
:1029B00010B500F015FB002802D10248FFF712FA0B
:1029C00010BDC0465740000010B500F023FB0028A2
:1029D00002D10248FFF706FA10BDC0465F40000072
:1029E0000022074B10B5186019715A719A71054B86
:1029F00005481A68054B1968FFF7F4F910BDC04681
:102A000070100010D40000106A400000D0000010C8
:102A1000F0B5684B85B01B68002B0ED1664C25E0E5
:102A200001212800FFF770FE2B781B2B24D10621F3
:102A30006248FFF769FE0023637102ABDD1D2900C8
:102A40000020FEF7C3FE002807D15A4C6379C72B3C
:102A5000E6D9002363715A4C08E02800FFF780F89C
:102A60000028F2D00024574B1C609DE0554B2000FD
:102A70001C6000F027FB97E0082B04D16379002B42
:102A8000DBD0013BD8E70D2B02D00A2B00D085E02C
:102A90004D48FFF7A7F96379002B03D14B48FFF7A7
:102AA000A1F9CAE7434A00251600D3189D71009585
:102AB000404F404B7A79F31A3C009A4233DD002BA9
:102AC00016D0B379222B13D1002D0ED17379002BA0
:102AD00000D06CE00221009BB5711933DB00FA18BD
:102AE0001171F21DDA5101351BE00023B3715EE074
:102AF000002D16D1B379202B13D1009BB571032B78
:102B00000FDC1A33DB000193E4180123F01D23715D
:102B10002A00290001F04AFA019BF850009B01337A
:102B200000930136C4E700267E712379284D9E422A
:102B300018DA0C27774323682800DB19596801F05D
:102B400098F900280CD12368DB199D68002DA5D0C9
:102B500000F022F92368009AD95B1E4BA8479DE735
:102B60000136E2E700240C2666431B4B28009F1920
:102B7000796801F07EF9002808D1BC6800F00CF9F2
:102B8000154B009AF15A134BA04787E70134052CE7
:102B9000E9D129001148FFF725F97FE76279511C37
:102BA0006171A418A37148E7200005B0F0BD0025AD
:102BB000B7E7C046701000101500000B7C40000005
:102BC0001200000B60110010DB410000814000008A
:102BD0007610001040110010C44000008340000037
:102BE000014B18607047C046101000108280002210
:102BF0000372044B0160C2800161C1601A60100061
:102C00007047C0466011001010B5C28883889A4290
:102C100001D2002201E00E4816E0037AC4689A420D
:102C200007D28B5C01322370C368D2B20133C36018
:102C3000F3E7818802684B43D3189C4200D1C260FD
:102C4000C3880133C3800020024B186010BDC0460A
:102C50001200000F60110010C388002B01D1114831
:102C60001CE00023002909D18188037A02684B43C4
:102C70000169D31899420DD102610BE0027A9A42A0
:102C8000F2D902691278CA54026901330132026131
:102C9000DBB2F3E7C388013BC3800020024B18601E
:102CA0007047C0461700000F6011001070B5040097
:102CB000C088A388084D834201D8084809E02289CA
:102CC00023685043181801F0C3F80020E38801334B
:102CD000E380286070BDC046601100101200000F34
:102CE00013B56B469C1C0C4B20800C49186800F0F7
:102CF000E9FD00222388002B0DD00192019B984210
:102D000004D9C046019B01330193F7E72388013BB7
:102D10009BB22380EEE713BDB8000010983A000084
:102D200070B5194A032928D88901002812DA0F231F
:102D3000C0B20340083B154C9B089B001B190324A1
:102D40002040A040FC3484408140DD69A5432943F4
:102D5000D9610FE083080E4C9B001B19032420400F
:102D6000A040C025FC3484408140AD005E59A6439C
:102D7000314359510020106005E0064C20001460DA
:102D800000F0A0F9200070BD6011001000ED00E01F
:102D900000E100E01600000F014B18687047C046C4
:102DA0001010001010B50348FFF71CF86420FFF75F
:102DB00097FF10BD1741000010B50348FFF712F848
:102DC0006420FFF78DFF10BD1F41000000B58BB0E0
:102DD00072B6392301A9059305A8024B98470BB099
:102DE00000BDC046F11FFF1F124B10B51860124BFB
:102DF0000A1A196000230432934206DAE024E4013F
:102E00001C192478C4540133F6E70C4CC2680C4BEF
:102E1000A24201D00B4C03E00968914205D00A4C54
:102E200020001C6000F04EF901E000241C6020002E
:102E300010BDC0461410001018100010AAAAAAAAAB
:102E4000601100100D0000080E000008F0B58FB0F2
:102E500003900C000292FDF753FA72B680239B0098
:102E60009C420CD002D8013BFF3B05E08023DB00F5
:102E70009C4204D080235B010C209C4246D1029BE3
:102E8000234D1E0B013B1B191B0B0193322309938E
:102E9000019B0A960B9305A909A8A847059B002B3F
:102EA00003D062B6059BD8B230E03423FA21194F23
:102EB0000993019B890038680B930A9600F002FD84
:102EC00005A90C9009A8A847059B002B1BD132230C
:102ED0000993019B0A960B9305A909A8A847059B8E
:102EE0000193002B0FD13323FA210993029B890010
:102EF0000A93039B38680B930C9400F0E3FC05A93C
:102F00000D9009A8A84762B60598C0B20FB0F0BDF1
:102F1000F11FFF1FB8000010F8B5274B060018601E
:102F2000264B0F00196000230C1D241AA34208D061
:102F3000E022D2019A18F15C1278914205D1013356
:102F4000F4E700201E4B186034E021001D48FEF716
:102F500049FF1B4D002C01DA1B4C26E08021490162
:102F60008C4201DD194C20E08023DB009C420ADC0E
:102F7000802219009200944205DC802311005B003E
:102F80009C4200DC1900124A124B1268F360326056
:102F9000114A89B2126830007260E0223B60D201AF
:102FA000FFF754FF0028CCD00C4C20002C6000F020
:102FB00089F82000F8BDC046141000101810001049
:102FC00060110010634100000A0000080B000008B7
:102FD000D0000010AAAAAAAAD40000100C00000871
:102FE000084B10B51868002807D1074C074B200084
:102FF0001C6000F067F8200003E0054B1968FFF73C
:103000008BFF10BD141000100C00000860110010A0
:10301000181000101A4B70B518681A4D002801D10D
:10302000194C08E00022194BC2601B6804C31B1A2C
:10303000934206DA164C20002C6000F043F8200082
:103040001CE0802149018B4201DD124CF3E7802214
:10305000D20093420ADC80241100A400A34205DCC4
:10306000802221005200934200DC1100E02289B24C
:10307000D201FFF7EBFE0028D2D1286070BDC04618
:1030800014100010601100100C000008181000103F
:103090000A0000080B000008024B1B68002B00D040
:1030A0001881704714100010044B1B68002B01D0CE
:1030B000188901E0024B18887047C04614100010B0
:1030C0000870000010B5002805D0020E0002010AA9
:1030D0000148FEF787FE10BD9D41000013B50400B6
:1030E000FDF78EFB2100019001A8FDF773FC13BDD5
:1030F0000122064B10B51A700220FEF73BFD02209C
:10310000FFF70EFB0220FFF7E9FFF5E71C100010A8
:1031100010B50C00054B06481860FFF7D3FF2100DF
:103120000448FEF75FFE72B6FEE7C046601100106D
:1031300019000013DE41000010B588B0FFF750FD04
:10314000FFF7A2FBFFF714FB0020FEF7B3FAFEF730
:1031500027FCFA204000FFF7C3FD1F246C44210028
:103160000020FEF733FB002805D123783F2BF4D154
:10317000FFF72CFEF1E70023064A04930092039325
:1031800002930193302204490448FDF72FFA08B056
:1031900010BDC046FFFF0000E9410000F130000013
:1031A0000023027843708370994204D10133002ACE
:1031B00005D1437003E0002A01D001228270037020
:1031C0007047FFFF10B504000B2938D8080000F045
:1031D0006FFB060C090F1512181E1B21252BFE3440
:1031E000A18B29E0FE34218C26E0FE34E18B23E024
:1031F000FE34218D20E0FE34A18D1DE0FE34618D72
:103200001AE0FE34A18E17E0FE34218F14E0FE3464
:10321000E18E11E001230A48237002E002230948ED
:103220002370FEF7DFFD0AE03834002A03D01B6864
:103230005A1E9341237021780348FEF7D3FD10BD39
:10324000F0410000FE4100002F44000011207047B3
:103250000C207047F0B589B00500FFF7F9FF0100B9
:1032600086480024FFF7BCFBFFF7F0FF844B82B2D7
:10327000009384492300029401948348FEF758FE8A
:103280008C235B00EC522B0002221933FF335C725B
:103290001A729C72059392235B00EC522B00012260
:1032A0002533FF335C721A729C72069398235B007D
:1032B000EC522B0004223133FF335C721A729C7281
:1032C00007939E235B00EC548023704A1B02D05866
:1032D0006F492C7201406C72AC72D15010216D4854
:1032E0006D4F8165FE586D48EC72064069482C733D
:1032F0006C73FE5041610420D658AC738643654818
:10330000EC732C74D650C16580208446D6586C74FA
:1033100086436048AC74EC74D6500162D65860485D
:103320002C7506406C75AC75D650A0265948F6052C
:1033300041656046F758EC75874356482C766C76A5
:10334000F7500165F7585548AC7607405148EC7680
:103350002C77F750016653486C77C7588446022093
:1033600087436046AC77EC77C750402084464E4F89
:1033700039606F1CFC77AF1CFC77EF1CFC77F758AB
:1033800087434448F7502F1DC164FC776F1DFC77BD
:10339000AF1DFC774248F75807403E48F75041665A
:1033A0006046EE1DF4770136F47720363470D65837
:1033B00020278643D6502E0036482936016001204A
:1033C00034707470B470D6588643D6502E0031488D
:1033D0002C36816034707470B4703048D658064012
:1033E000D6502E002B482F36416234707470B47062
:1033F000D658BE432F00D6502E0041373C36FF37FB
:10340000416439003000FFF7EFFCA04233D08C2339
:1034100002225B00EC52059B05991A72234A5C72EA
:103420009A809C725C80224B0120CB8092214900C3
:103430006C52069908728A80CB804C728C724C80D8
:103440009821042049006C5207998A80CB80087229
:103450004C728C724C80FFF7F9FE094B82B20093DC
:1034600008490294019423000748FEF7C9FD39007A
:103470003000FFF751FD09B0F0BDC04674420000B6
:103480009811001004430000B01100100000025019
:10349000FFFBFFFF0040044000000150FFFEFFFF64
:1034A000FFFDFFFF0000035088400440FF030000C1
:1034B000FF010000F0B589B00400FFF7CBFE142136
:1034C0000020FEF713FA2000250014214C30FEF7EF
:1034D00029FEFFF79DFAFFF70DFA23781935FF351E
:1034E000012B0DD1280000F05DF920002530FF30C0
:1034F00000F058F920003130FF3000F053F914E0AB
:10350000022B12D100222133FF33E25400220C336C
:103510002100E254200000220C334131E254FF31FB
:103520003C30FFF7F9FC002323702800142100F041
:103530004BF9200025301421FF3000F045F9200020
:1035400031301421FF3000F03FF92E233A22FF33AF
:10355000FF32A25CE35C714D13432222FF32A25C76
:103560009B0013439E225200A3546D4B01265959D0
:103570002300890A0833314018000793FFF710FE33
:103580002000684B0B305959A027090A3140FFF73A
:1035900007FE2000624B0E305959FF058908314063
:1035A000FFF7FEFD20005E4B11305959C90931402B
:1035B000FFF7F6FD20005A4B14305959490A3140A3
:1035C000FFF7EEFD200079591730C9093140FFF7A8
:1035D000E7FD200079591A30090A3140FFF7E0FD74
:1035E000514B200059591D30F1403140FFF7D8FDB3
:1035F00020007959203089093140FFF7D1FD2000A2
:1036000079592330490A3140FFF7CAFD2000444B65
:103610002630595989093140FFF7C2FD2000404B3F
:10362000293059593140FFF7BBFD20003C4B2C306D
:103630005959090A3140FFF7B3FD2000384B2F30AC
:10364000595949093140FFF7ABFD00200600844677
:103650000300079A117867469940394389B28C462E
:10366000517899400E439178B6B29940013308439E
:1036700080B203320E2BEDD1634663802300A68017
:10368000E08038331B78002B28D027002378FE37C2
:10369000012B12D1F88EFB8B3A8CB98B0590388FA9
:1036A0000490B88E0390788D0290B88D0190388D7B
:1036B00000901E48FEF796FB10E03222BB5E2621EA
:1036C0007A5E1A21795E0390604601909E20400048
:1036D000205C029600901648FEF784FB154E0020F1
:1036E000337801333370FEF7D7F93378032804D0E9
:1036F000042805D10B2B0DD904E0042B0AD901E0D5
:10370000312B07D90222064B5B595340044A5351CF
:10371000002333701420FFF7E1FCD0E6FC3F0000EB
:10372000000002500000015000000350D043000090
:10373000344400001D10001070B5002480210225C3
:10374000124B09029C62124B86B05A580D202A4334
:103750005A5010495A582A435A500121FFF7E0FAAB
:1037600029001520FFF7DCFA0B4E3000FFF7E4FCD0
:103770003300C022094904940394029401940095F3
:103780000748FCF733FFFDF705F8FEE7004004406B
:1037900000000250FC3F000064110010864400004D
:1037A000B534000010B5837A0400002B07D1054B17
:1037B000C82183804380007AFFF754F8E08001231A
:1037C000A37210BDFF010000F7B514210400007AB8
:1037D000FFF748F805B20600280000F0D3FA314997
:1037E000071C00F00BFA0190002803D0002323806F
:1037F000013309E02C49381C00F0ECF9002805D011
:103800006B469B8823800223637249E0A27A607230
:103810006388002A3BD19D4201DA1DB203E0A288F1
:10382000954200DD15B2E1880A003232954216DD7C
:10383000A38800209A4206D0FA21A81A890048439A
:10384000991A00F0C9F8FA2100B24043890000F04B
:10385000C3F8FA2300B29B00984220DC15E032390D
:103860008D421BDA00208B4206D0FA22681A9200A1
:103870005043591A00F0B0F800B240430B4900F031
:10388000ABF80A4B00B2984209DB208008E0A2881E
:10389000954200DDA6809D4200DA668000232380E9
:1038A000F7BDC04666F672449A994C4218FCFFFF79
:1038B00002B4714649084900095C49008E4402BCC3
:1038C0007047C046002243088B4274D303098B42E1
:1038D0005FD3030A8B4244D3030B8B4228D3030CE0
:1038E0008B420DD3FF22090212BA030C8B4202D382
:1038F0001212090265D0030B8B4219D300E0090AAA
:10390000C30B8B4201D3CB03C01A5241830B8B42B2
:1039100001D38B03C01A5241430B8B4201D34B039B
:10392000C01A5241030B8B4201D30B03C01A524100
:10393000C30A8B4201D3CB02C01A5241830A8B4285
:1039400001D38B02C01A5241430A8B4201D34B026E
:10395000C01A5241030A8B4201D30B02C01A5241D2
:10396000CDD2C3098B4201D3CB01C01A5241830986
:103970008B4201D38B01C01A524143098B4201D3C0
:103980004B01C01A524103098B4201D30B01C01AEB
:103990005241C3088B4201D3CB00C01A5241830865
:1039A0008B4201D38B00C01A524143088B4201D392
:1039B0004B00C01A5241411A00D2014652411046F2
:1039C0007047FFE701B5002000F0F0F802BDC046E7
:1039D0000029F7D076E7704703460B437FD40022D7
:1039E00043088B4274D303098B425FD3030A8B4293
:1039F00044D3030B8B4228D3030C8B420DD3FF22FD
:103A0000090212BA030C8B4202D31212090265D0CA
:103A1000030B8B4219D300E0090AC30B8B4201D37D
:103A2000CB03C01A5241830B8B4201D38B03C01AC4
:103A30005241430B8B4201D34B03C01A5241030B3B
:103A40008B4201D30B03C01A5241C30A8B4201D3EC
:103A5000CB02C01A5241830A8B4201D38B02C01A97
:103A60005241430A8B4201D34B02C01A5241030A0E
:103A70008B4201D30B02C01A5241CDD2C3098B42F3
:103A800001D3CB01C01A524183098B4201D38B0170
:103A9000C01A524143098B4201D34B01C01A524113
:103AA00003098B4201D30B01C01A5241C3088B4258
:103AB00001D3CB00C01A524183088B4201D38B0043
:103AC000C01A524143088B4201D34B00C01A5241E5
:103AD000411A00D201465241104670475DE0CA0FBC
:103AE00000D04942031000D34042534000229C467C
:103AF00003098B422DD3030A8B4212D3FC22890186
:103B000012BA030A8B420CD3890192118B4208D35B
:103B1000890192118B4204D389013AD0921100E0BD
:103B20008909C3098B4201D3CB01C01A52418309D1
:103B30008B4201D38B01C01A524143098B4201D3FE
:103B40004B01C01A524103098B4201D30B01C01A29
:103B50005241C3088B4201D3CB00C01A52418308A3
:103B60008B4201D38B00C01A5241D9D243088B42F9
:103B700001D34B00C01A5241411A00D2014663469C
:103B800052415B10104601D34042002B00D5494200
:103B9000704763465B1000D3404201B5002000F03F
:103BA00005F802BD0029F8D016E770477047C046F7
:103BB0008446081C6146FFE71FB500F09FF8002807
:103BC00001D40021C8421FBD10B500F02BF84042BF
:103BD000013010BD10B500F091F8002801DB002085
:103BE00010BD012010BDC04610B500F087F80028B8
:103BF00001DD002010BD012010BDC04610B500F051
:103C000039F8002801DC002010BD012010BDC0469D
:103C100010B500F02FF8002801DA002010BD0120B7
:103C200010BDC046430270B542004C005D0AC30F90
:103C30004802120E460A240EC90FFF2A0FD0FF2C8D
:103C400011D00120A24200D070BDB542FCD18B4200
:103C50000DD0002AF8D12800431E9841F4E7012036
:103C6000002DF1D1EBE70120002EEDD1E9E7002096
:103C7000EAE7C0464302F0B542005D0AC30F4802BE
:103C8000440A4800120E000EC90FFF2A1FD0FF2859
:103C900022D0002A09D16E426E4100280FD1002C9B
:103CA0000DD10020002D09D005E0002801D1002C05
:103CB00001D08B4213D0584201231843F0BD002E8F
:103CC000F7D048424141012049420843F6E7002D20
:103CD000DDD002204042F1E7002CDAD0F9E7824241
:103CE000E9DC04DBA542E6D80020A542E6D2584232
:103CF000434101205B421843E0E7C0464302F0B570
:103D000042004C005E0AC30F4802120E450A240E00
:103D1000C90FFF2A17D0FF2C19D0002A0BD17042EF
:103D20007041002C17D0002807D0484241410120A3
:103D300049420843F0BD002C13D08B4214D05842A6
:103D400001231843F6E70220002EF3D1E3E7022017
:103D5000002DEFD1E1E7002DE5D10020002EE9D0C4
:103D6000EDE7002DE9D1EAE7A242E8DC04DBAE4250
:103D7000E5D80020AE42DDD25842434101205B42EB
:103D80001843D7E770B5002830D0C317C5185D4079
:103D9000C40F280000F03EF89E231B1A962B0DDC62
:103DA0009622D21A95406A02520AD8B25202C0052F
:103DB000520AE40702432243100070BD992B19DC1C
:103DC0009922D21A9540124A2A40690704D00F213D
:103DD0000D40042D00D00432510103D50C4B1A4084
:103DE0009F231B1A9201520AD8B2DFE70024002059
:103DF0000022DBE705222E00121AB921D6402A0044
:103E0000C91A8A40551EAA4135001543DBE7C04652
:103E1000FFFFFFFB1C2101231B04984201D3000C70
:103E200010391B0A984201D3000A08391B0998422D
:103E300001D30009043902A2105C40187047C04643
:103E40000403020201010101000000000000000063
:103E5000002310B59A4203D0CC5CC4540133F9E777
:103E600010BD03008218934202D019700133FAE7A3
:103E7000704702780B78002A03D0013001319A4252
:103E8000F7D0D01A7047FFFFF0B51E00454B87B042
:103E90001B680192029308220B00059003911C7885
:103EA00002995D1C09194878104001D02B00F6E7F3
:103EB0002D2C04D19D1C5C780123009304E000901C
:103EC0002B2C01D15C789D1C002E02D0102E0AD123
:103ED00062E0302C5ED120222B789343582B54D1B2
:103EE00010266C780235009F31007B1E9F412E4BBF
:103EF000FF183800FFF76CFD380004913100FFF720
:103F0000E1FC00230322070094461800029A1219CC
:103F100051780422114201D0303C07E06246114042
:103F200017D03722012900D02032A41AA64210DD72
:103F30005A1C0BD0B84207D802D1049B9C4203DC28
:103F400070430123201801E001235B422C780135E6
:103F5000DCE75A1C0BD10098059A431E9841124B7E
:103F6000C01822231360019B002B0AD117E0009A8E
:103F7000002A00D04042019A002A10D0039A002B58
:103F800000D06A1E019B1A6009E03024002EAAD1DD
:103F90000826A8E70A26A6E7302C9CD0A3E707B09E
:103FA000F0BDC046D8000010FFFFFF7F10B5130022
:103FB0000A00010002480068FFF766FF10BDC04616
:103FC0003C010010801A060020A1070000350C00FB
:103FD000E0C81000C05C1500006A180040771B00A4
:103FE00080841E00C0912100009F240040AC270067
:103FF000E032290020402C00604D2F0000D430001A
:1040000040E1330049444C4500546D725100546DF9
:10401000722053766300FFFF311800001D18000066
:104020002D1800000000000000000000000000004B
:104030000000000000000000286E756C6C2900254F
:1040400073204275696C64206F6E2025730A0D0021
:10405000222573220A0D0073617665640A0D0072D1
:10406000657665727465640A0D0025730A0D4275E4
:10407000696C64206F6E2025730A0D001B5B324B48
:104080000D3E00436F6D6D616E6420272573272000
:104090006E6F7420666F756E640A0D006F6E00742B
:1040A00072756500310068656C7000646576007338
:1040B0006176650072657665727400726573657409
:1040C00000FFFFFF00000000A640000041290000A3
:1040D00001000000AB4000002129000002000000A8
:1040E000AF400000B129000003000000B440000010
:1040F000C929000004000000BB4000009529000011
:10410000434F4E4649475F5441524745545F4C50D8
:10411000433131433134001B5B4B4E4D490D001B85
:104120005B4B486172644661756C740D001B5B4BA0
:104130004D656D4D616E6167650D001B5B4B427592
:10414000734661756C740D001B5B4B55736167653D
:104150004661756C740D001B5B4B44656661756C44
:10416000740D00466C617368696E67202575206266
:10417000797465730A0D0044656320323220323051
:1041800031362031363A34303A3333006B6579704A
:1041900061645F352E302D6469727479000A0D2ACE
:1041A0002A2A2A204572726F722025752066726F46
:1041B0006D206D6F64756C65202575202875765FA0
:1041C0006572726F72732E6820666F7220646574F8
:1041D00061696C7329202A2A2A2A200A0D00746139
:1041E000736B3A2025730A0D0075765F68616C0069
:1041F00073746172742063616C69620A0D00656E8C
:10420000642063616C69620A0D00676574786D698A
:104210006E00676574786D6964646C6500676574C9
:10422000786D617800676574796D696E0067657493
:10423000796D6964646C6500676574796D61780097
:104240006765747A6D696E006765747A6D69646418
:104250006C65006765747A6D61780063616C696292
:1042600073746172740063616C6962656E64006589
:1042700063686F00000000000A420000C5310000C2
:104280000200000012420000C531000001000000E1
:104290001D420000C531000003000000254200005F
:1042A000C5310000050000002D420000C5310000AE
:1042B0000400000038420000C53100000600000084
:1042C00040420000C53100000800000048420000E4
:1042D000C53100000700000053420000C531000056
:1042E000090000005B420000C53100000A00000028
:1042F00066420000C53100000B0000006F42000064
:10430000C53100000020000266110010010000000D
:1043100001200002681100100100000002200002CC
:104320006A11001001000000102000027C12001031
:10433000010000001120000288120010010000009E
:104340001220000294120010010000002020000240
:104350007E120010030000002120000282120010D3
:104360000300000022200002801200100300000061
:10437000232000028A120010030000002420000203
:104380008E12001003000000252000028C12001085
:104390000300000026200002961200100300000017
:1043A000272000029A1200100300000028200002BB
:1043B000981200100300000030200001A01200102D
:1043C0000100000040200001641100100100000005
:1043D00078206D696E2025752C2078206D696464C5
:1043E0006C652025752C2078206D61782025752C32
:1043F0002079206D696E2025752C2079206D6964E7
:10440000646C652025752C2079206D6178202575D8
:104410002C207A206D696E2025752C207A206D69FC
:1044200064646C652025752C207A206D61782025C8
:10443000750A0D00206A6F795F782025692C206A43
:104440006F795F792025692C206A6F795F7A202542
:1044500069206A6F79206572726F72732025782CDB
:1044600020697320646F776E2025782C2070726528
:10447000737365642025782072656C65617365646B
:104480002025780A0D00737465700000202020201C
:1044900020202020202828282828202020202020F4
:1044A00020202020202020202020202088101010D4
:1044B000101010101010101010101010040404042C
:1044C00004040404040410101010101010414141A1
:1044D000414141010101010101010101010101010C
:1044E000010101010101011010101010104242429F
:1044F00042424202020202020202020202020202DC
:10450000020202020202021010101020000000003D
:10451000000000000000000000000000000000009B
:10452000000000000000000000000000000000008B
:10453000000000000000000000000000000000007B
:10454000000000000000000000000000000000006B
:10455000000000000000000000000000000000005B
:10456000000000000000000000000000000000004B
:10457000000000000000000000000000000000003B
:104580000000000000000000000000004300FFFFEA
:10459000005A6202B00B0000AAAAAAAA04100010D6
:1045A00008000000010000008C410000774100007D
:1045B0008B4400000000000000000000000000002C
:1045C00000000000000000000000000000000000EB
:1045D000000000008C45000000000000000000000A
:1045E00000000000000000000000000000000000CB
:1045F00000000000000000000000000000000000BB
:1046000000000000000000000000000000000000AA
:0846100000000000DC000010B6
:0400000300000103F5
:00000001FF
